{
  "contractName": "Adoption",
  "abi": [
    {
      "constant": true,
      "inputs": [
        {
          "name": "",
          "type": "uint256"
        }
      ],
      "name": "adopters",
      "outputs": [
        {
          "name": "",
          "type": "address"
        }
      ],
      "payable": false,
      "stateMutability": "view",
      "type": "function"
    },
    {
      "constant": true,
      "inputs": [
        {
          "name": "",
          "type": "string"
        }
      ],
      "name": "rentMessage",
      "outputs": [
        {
          "name": "id",
          "type": "uint256"
        },
        {
          "name": "houseName",
          "type": "string"
        },
        {
          "name": "rantal",
          "type": "uint256"
        },
        {
          "name": "floors",
          "type": "uint256"
        },
        {
          "name": "houseAddr",
          "type": "string"
        },
        {
          "name": "houseType",
          "type": "uint256"
        },
        {
          "name": "area",
          "type": "string"
        },
        {
          "name": "deposit",
          "type": "uint256"
        },
        {
          "name": "minPeriod",
          "type": "string"
        },
        {
          "name": "cooking",
          "type": "bool"
        },
        {
          "name": "date",
          "type": "uint256"
        }
      ],
      "payable": false,
      "stateMutability": "view",
      "type": "function"
    },
    {
      "constant": false,
      "inputs": [
        {
          "name": "hId",
          "type": "string"
        }
      ],
      "name": "setRentMessage",
      "outputs": [
        {
          "name": "houseName",
          "type": "string"
        },
        {
          "name": "rantal",
          "type": "uint256"
        },
        {
          "name": "floors",
          "type": "uint256"
        },
        {
          "name": "houseAddr",
          "type": "string"
        },
        {
          "name": "houseType",
          "type": "uint256"
        },
        {
          "name": "area",
          "type": "string"
        },
        {
          "name": "deposit",
          "type": "uint256"
        },
        {
          "name": "minPeriod",
          "type": "string"
        },
        {
          "name": "cooking",
          "type": "bool"
        },
        {
          "name": "date",
          "type": "uint256"
        }
      ],
      "payable": false,
      "stateMutability": "nonpayable",
      "type": "function"
    },
    {
      "constant": false,
      "inputs": [
        {
          "name": "petId",
          "type": "uint256"
        }
      ],
      "name": "adopt",
      "outputs": [
        {
          "name": "",
          "type": "uint256"
        }
      ],
      "payable": false,
      "stateMutability": "nonpayable",
      "type": "function"
    },
    {
      "constant": true,
      "inputs": [],
      "name": "getAdopters",
      "outputs": [
        {
          "name": "",
          "type": "address[16]"
        }
      ],
      "payable": false,
      "stateMutability": "view",
      "type": "function"
    }
  ],
  "bytecode": "0x608060405234801561001057600080fd5b50610d88806100206000396000f3fe608060405234801561001057600080fd5b50600436106100575760003560e01c80633de4eb171461005c57806343ae80d31461009d57806372f8fa83146100d65780638588b2c51461035b578063ee52c2791461038a575b600080fd5b610064610608565b604051808261020080838360005b8381101561008a578181015183820152602001610072565b5050505090500191505060405180910390f35b6100ba600480360360208110156100b357600080fd5b503561064e565b604080516001600160a01b039092168252519081900360200190f35b61017c600480360360208110156100ec57600080fd5b81019060208101813564010000000081111561010757600080fd5b82018360208201111561011957600080fd5b8035906020019184600183028401116401000000008311171561013b57600080fd5b91908080601f01602080910402602001604051908101604052809392919081815260200183838082843760009201919091525092955061066b945050505050565b604051808c8152602001806020018b81526020018a81526020018060200189815260200180602001888152602001806020018715151515815260200186815260200185810385528f818151815260200191508051906020019080838360005b838110156101f35781810151838201526020016101db565b50505050905090810190601f1680156102205780820380516001836020036101000a031916815260200191505b5085810384528c5181528c516020918201918e019080838360005b8381101561025357818101518382015260200161023b565b50505050905090810190601f1680156102805780820380516001836020036101000a031916815260200191505b5085810383528a5181528a516020918201918c019080838360005b838110156102b357818101518382015260200161029b565b50505050905090810190601f1680156102e05780820380516001836020036101000a031916815260200191505b5085810382528851815288516020918201918a019080838360005b838110156103135781810151838201526020016102fb565b50505050905090810190601f1680156103405780820380516001836020036101000a031916815260200191505b509f5050505050505050505050505050505060405180910390f35b6103786004803603602081101561037157600080fd5b5035610905565b60408051918252519081900360200190f35b610430600480360360208110156103a057600080fd5b8101906020810181356401000000008111156103bb57600080fd5b8201836020820111156103cd57600080fd5b803590602001918460018302840111640100000000831117156103ef57600080fd5b91908080601f016020809104026020016040519081016040528093929190818152602001838380828437600092019190915250929550610946945050505050565b60405180806020018b81526020018a81526020018060200189815260200180602001888152602001806020018715151515815260200186815260200185810385528f818151815260200191508051906020019080838360005b838110156104a1578181015183820152602001610489565b50505050905090810190601f1680156104ce5780820380516001836020036101000a031916815260200191505b5085810384528c5181528c516020918201918e019080838360005b838110156105015781810151838201526020016104e9565b50505050905090810190601f16801561052e5780820380516001836020036101000a031916815260200191505b5085810383528a5181528a516020918201918c019080838360005b83811015610561578181015183820152602001610549565b50505050905090810190601f16801561058e5780820380516001836020036101000a031916815260200191505b5085810382528851815288516020918201918a019080838360005b838110156105c15781810151838201526020016105a9565b50505050905090810190601f1680156105ee5780820380516001836020036101000a031916815260200191505b509e50505050505050505050505050505060405180910390f35b610610610ce1565b604080516102008101918290529060019060109082845b81546001600160a01b03168152600190910190602001808311610627575050505050905090565b6001816010811061065b57fe5b01546001600160a01b0316905081565b805160208183018101805160008252928201938201939093209190925280546001808301805460408051600294831615610100026000190190921693909304601f810187900487028201870190935282815292949091908301828280156107135780601f106106e857610100808354040283529160200191610713565b820191906000526020600020905b8154815290600101906020018083116106f657829003601f168201915b505050505090806002015490806003015490806004018054600181600116156101000203166002900480601f0160208091040260200160405190810160405280929190818152602001828054600181600116156101000203166002900480156107bd5780601f10610792576101008083540402835291602001916107bd565b820191906000526020600020905b8154815290600101906020018083116107a057829003601f168201915b50505050600583015460068401805460408051602060026001851615610100026000190190941693909304601f810184900484028201840190925281815295969395939450908301828280156108545780601f1061082957610100808354040283529160200191610854565b820191906000526020600020905b81548152906001019060200180831161083757829003601f168201915b50505050600783015460088401805460408051602060026001851615610100026000190190941693909304601f810184900484028201840190925281815295969395939450908301828280156108eb5780601f106108c0576101008083540402835291602001916108eb565b820191906000526020600020905b8154815290600101906020018083116108ce57829003601f168201915b505050506009830154600a90930154919260ff169190508b565b6000600f82111561091557600080fd5b336001836010811061092357fe5b0180546001600160a01b0319166001600160a01b03929092169190911790555090565b606060008060606000606060006060600080610960610d00565b60008c6040518082805190602001908083835b602083106109925780518252601f199092019160209182019101610973565b518151602093840361010090810a6000199081018019909416939092169290921790925292909401968752604080519788900382018820610160890182528054895260018082018054845160029382161590970290980190971604601f81018490048402850184019092528184529650878201955091939250830182828015610a5c5780601f10610a3157610100808354040283529160200191610a5c565b820191906000526020600020905b815481529060010190602001808311610a3f57829003601f168201915b505050505081526020016002820154815260200160038201548152602001600482018054600181600116156101000203166002900480601f016020809104026020016040519081016040528092919081815260200182805460018160011615610100020316600290048015610b125780601f10610ae757610100808354040283529160200191610b12565b820191906000526020600020905b815481529060010190602001808311610af557829003601f168201915b5050509183525050600582015460208083019190915260068301805460408051601f60026000196101006001871615020190941693909304928301859004850281018501825282815294019392830182828015610bb05780601f10610b8557610100808354040283529160200191610bb0565b820191906000526020600020905b815481529060010190602001808311610b9357829003601f168201915b5050509183525050600782015460208083019190915260088301805460408051601f60026000196101006001871615020190941693909304928301859004850281018501825282815294019392830182828015610c4e5780601f10610c2357610100808354040283529160200191610c4e565b820191906000526020600020905b815481529060010190602001808311610c3157829003601f168201915b505050505081526020016009820160009054906101000a900460ff16151515158152602001600a82015481525050905080602001518160400151826060015183608001518460a001518560c001518660e001518761010001518861012001518961014001518999508696508494508292509a509a509a509a509a509a509a509a509a509a50509193959799509193959799565b6040518061020001604052806010906020820280388339509192915050565b60405180610160016040528060008152602001606081526020016000815260200160008152602001606081526020016000815260200160608152602001600081526020016060815260200160001515815260200160008152509056fea165627a7a72305820c9b2d084f755193861542e64a9d2361e759efa898830eccc270b4def040262050029",
  "source": "pragma solidity ^0.5.0;\n\ncontract Adoption {\n\n  // address[16] public adopters;  // 保存租屋者的地址\n\n// houseMerchandise\n  struct hM {\n    // db物件編號\n    uint id;\n    // 物件名稱\n    string houseName;\n    // 月租\n    uint rantal;\n    // 樓層\n    uint floors;\n    // 地址\n    string houseAddr;\n    // 房型\n    // string houseType;\n    uint houseType;\n\n    // 坪數\n    string area;\n    // 押金（月）\n    uint deposit;\n    // 最短租期(days)\n    string minPeriod;\n    // 車位\n    // bool parkinglot;\n    // 性別要求\n    // string genderRequire;\n    // 可否開伙\n    bool cooking;\n    // 可否養寵物\n    // bool petKeeping;\n    // 可遷入日(yyyy/mm/dd)\n    uint date;\n    // 隔間材料\n    // string material;\n\n    \n  }\n  //initialize\n  // houseMerchandise initHm = houseMerchandise();\n    //initialize\n\n    // function Inbox(houseMerchandise initHm) internal  {\n        // message = initHm;\n    // }\n    mapping(string =>  hM) public rentMessage;\n    // hM initHm;\n    //租房合約message， 填入houseMerchandise租房資料\n\n    function setRentMessage(string memory hId) public returns(string memory houseName,uint rantal,uint floors,string memory houseAddr,uint houseType,string memory area,uint deposit,string memory minPeriod,bool cooking,uint date) {\n        hM memory rentData = rentMessage[hId];\n        // message = initHm;\n        // return initHm;\n        return(rentData.houseName,rentData.rantal,rentData.floors,rentData.houseAddr,rentData.houseType,rentData.area,rentData.deposit,rentData.minPeriod,rentData.cooking,rentData.date);\n    }\n    //取得這個合約中的message變量\n    // function getRentMessage() internal view returns(string memory) {\n        // return rentMessage;\n    // }\n\n  address[16] public adopters;  // 保存房客的地址\n\n  function adopt(uint petId) public returns (uint) {\n    // id長度限制\n    require(petId >= 0 && petId <= 15);  \n\n    adopters[petId] = msg.sender;        // 保存到房客地址 \n    return petId;\n  }\n\n  function getAdopters() public view returns (address[16] memory) {\n    return adopters;\n  }\n\n}\n",
  "sourcePath": "/Users/chenchisheng/Desktop/dapp_houseshop/contracts/Adoption.sol",
  "compiler": {
    "name": "solc",
    "version": "0.5.8+commit.23d335f2.Emscripten.clang"
  },
  "schemaVersion": "3.0.11",
  "updatedAt": "2019-07-06T03:15:56.166Z",
  "devdoc": {
    "methods": {}
  },
  "userdoc": {
    "methods": {}
  }
}