{
  "contractName": "HouseFur",
  "abi": [
    {
      "constant": true,
      "inputs": [
        {
          "name": "",
          "type": "string"
        }
      ],
      "name": "renthFMessage",
      "outputs": [
        {
          "name": "waterHeater",
          "type": "bool"
        },
        {
          "name": "gasNutual",
          "type": "bool"
        },
        {
          "name": "refrigerator",
          "type": "bool"
        },
        {
          "name": "airConditioner",
          "type": "bool"
        },
        {
          "name": "washingMachine",
          "type": "bool"
        },
        {
          "name": "internet",
          "type": "bool"
        },
        {
          "name": "chairnTable",
          "type": "bool"
        },
        {
          "name": "wardrobe",
          "type": "bool"
        },
        {
          "name": "bed",
          "type": "bool"
        },
        {
          "name": "sofa",
          "type": "bool"
        },
        {
          "name": "tv",
          "type": "bool"
        },
        {
          "name": "theForth",
          "type": "bool"
        },
        {
          "name": "selfFixing",
          "type": "bool"
        }
      ],
      "payable": false,
      "stateMutability": "view",
      "type": "function"
    },
    {
      "constant": false,
      "inputs": [
        {
          "name": "hId",
          "type": "string"
        }
      ],
      "name": "sethFMessage",
      "outputs": [
        {
          "name": "waterHeater",
          "type": "bool"
        },
        {
          "name": "gasNutual",
          "type": "bool"
        },
        {
          "name": "refrigerator",
          "type": "bool"
        },
        {
          "name": "airConditioner",
          "type": "bool"
        },
        {
          "name": "washingMachine",
          "type": "bool"
        },
        {
          "name": "internet",
          "type": "bool"
        },
        {
          "name": "chairnTable",
          "type": "bool"
        },
        {
          "name": "wardrobe",
          "type": "bool"
        },
        {
          "name": "bed",
          "type": "bool"
        },
        {
          "name": "sofa",
          "type": "bool"
        },
        {
          "name": "tv",
          "type": "bool"
        },
        {
          "name": "theForth",
          "type": "bool"
        },
        {
          "name": "selfFixing",
          "type": "bool"
        }
      ],
      "payable": false,
      "stateMutability": "nonpayable",
      "type": "function"
    }
  ],
  "bytecode": "0x608060405234801561001057600080fd5b5061059e806100206000396000f3fe608060405234801561001057600080fd5b50600436106100365760003560e01c80630cd199361461003b5780638578e6ea14610154575b600080fd5b6100e16004803603602081101561005157600080fd5b81019060208101813564010000000081111561006c57600080fd5b82018360208201111561007e57600080fd5b803590602001918460018302840111640100000000831117156100a057600080fd5b91908080601f0160208091040260200160405190810160405280939291908181526020018383808284376000920191909152509295506101fa945050505050565b604080519d15158e529b151560208e01529915158c8c015297151560608c015295151560808b015293151560a08a015291151560c0890152151560e08801521515610100870152151561012086015215156101408501521515610160840152151561018083015251908190036101a00190f35b6100e16004803603602081101561016a57600080fd5b81019060208101813564010000000081111561018557600080fd5b82018360208201111561019757600080fd5b803590602001918460018302840111640100000000831117156101b957600080fd5b91908080601f01602080910402602001604051908101604052809392919081815260200183838082843760009201919091525092955061045a945050505050565b6000806000806000806000806000806000806000610216610506565b60008f6040518082805190602001908083835b602083106102485780518252601f199092019160209182019101610229565b6001836020036101000a0380198251168184511680821785525050505050509050019150509081526020016040518091039020604051806101a00160405290816000820160009054906101000a900460ff161515151581526020016000820160019054906101000a900460ff161515151581526020016000820160029054906101000a900460ff161515151581526020016000820160039054906101000a900460ff161515151581526020016000820160049054906101000a900460ff161515151581526020016000820160059054906101000a900460ff161515151581526020016000820160069054906101000a900460ff161515151581526020016000820160079054906101000a900460ff161515151581526020016000820160089054906101000a900460ff161515151581526020016000820160099054906101000a900460ff1615151515815260200160008201600a9054906101000a900460ff1615151515815260200160008201600b9054906101000a900460ff1615151515815260200160008201600c9054906101000a900460ff1615151515815250509050806000015181602001518260400151836060015184608001518560a001518660c001518760e001518861010001518961012001518a61014001518b61016001518c61018001519d509d509d509d509d509d509d509d509d509d509d509d509d505091939597999b9d90929496989a9c50565b805160208183018101805160008252928201919093012091525460ff80821691610100810482169162010000820481169163010000008104821691640100000000820481169165010000000000810482169166010000000000008204811691670100000000000000810482169168010000000000000000820481169169010000000000000000008104821691600160501b8204811691600160581b8104821691600160601b909104168d565b604080516101a081018252600080825260208201819052918101829052606081018290526080810182905260a0810182905260c0810182905260e0810182905261010081018290526101208101829052610140810182905261016081018290526101808101919091529056fea165627a7a72305820a873eef3231b53928509424e26d22a9d970fb8ecb4bbde8c7fc627197a33c5000029",
  "source": "pragma solidity ^0.5.0;\n\ncontract HouseFur {\n\n    //房東提供的東東houseFurniture\n  struct hF{\n    // （是否有）熱水器\n    bool waterHeater;\n    // 瓦斯\n    bool gasNutual;\n    // 冰箱\n    bool refrigerator;\n    // 冷氣\n    bool airConditioner;\n    // 洗衣機\n    bool washingMachine;\n    // 網路\n    bool internet;\n    // 桌椅\n    bool chairnTable;\n    // 衣櫃\n    bool wardrobe;\n    // 床具\n    bool bed;\n    // 沙發\n    bool sofa;\n    // 電視\n    bool tv;\n    // 第四台\n    bool theForth;\n\n    // 壞掉是否需要自行負擔維修\n    bool selfFixing;\n  }\n\n  mapping(string =>  hF) public renthFMessage;\n    function sethFMessage(string memory hId) public returns(bool waterHeater,bool gasNutual,bool refrigerator,bool airConditioner,bool washingMachine,bool internet,bool chairnTable,bool wardrobe,bool bed,bool sofa,bool tv,bool theForth,bool selfFixing) {\n        hF memory hFData = renthFMessage[hId];\n        return(hFData.waterHeater,hFData.gasNutual,hFData.refrigerator,hFData.airConditioner,hFData.washingMachine,hFData.internet,hFData.chairnTable,hFData.wardrobe,hFData.bed,hFData.sofa,hFData.tv,hFData.theForth,hFData.selfFixing);\n    }\n}",
  "sourcePath": "/Users/chenchisheng/Desktop/dapp_houseshop/contracts/HouseFur.sol",
  "compiler": {
    "name": "solc",
    "version": "0.5.8+commit.23d335f2.Emscripten.clang"
  },
  "schemaVersion": "3.0.11",
  "updatedAt": "2019-07-06T03:15:56.172Z",
  "devdoc": {
    "methods": {}
  },
  "userdoc": {
    "methods": {}
  }
}